:100000000C9462000C9456040C942F040C948A00F7
:100010000C948A000C948A000C948A000C948A0038
:100020000C948A000C948A000C948A000C948A0028
:100030000C948A000C948A000C948A000C948A0018
:100040000C94E5030C948A000C94A3040C947D0496
:100050000C948A000C948A000C948A000C948A00F8
:100060000C948A000C948A000000000023002600F3
:10007000290000000000240027002A0000000000E2
:10008000250028002B0004040404040404040202D4
:100090000202020203030303030301020408102007
:1000A0004080010204081020010204081020000012
:1000B0000008000201000003040700000000000027
:1000C0000000A90611241FBECFEFD8E0DEBFCDBFD0
:1000D00011E0A0E0B1E0E0EDFFE002C005900D927C
:1000E000AE31B107D9F721E0AEE1B1E001C01D9218
:1000F000A53CB207E1F710E0C2E6D0E004C02197CA
:10010000FE010E94DB07C136D107C9F70E94D50462
:100110000C94E6070C940000833081F028F48130C1
:1001200099F08230A1F008958730A9F08830B9F0B5
:100130008430D1F4809180008F7D03C08091800055
:100140008F7780938000089584B58F7702C084B53F
:100150008F7D84BD08958091B0008F7703C080911A
:10016000B0008F7D8093B00008951F93CF93DF93ED
:10017000282F30E0F901E255FF4F8491F901E6564E
:10018000FF4FD491F901EA57FF4FC491CC23C1F03E
:10019000162F81110E948C00EC2FF0E0EE0FFF1F54
:1001A000E458FF4FA591B4919FB7F894111104C082
:1001B0008C91D095D82302C0EC91DE2BDC939FBFAD
:1001C000DF91CF911F910895CF93DF9390E0FC01D1
:1001D000E656FF4F2491FC01EA57FF4F8491882394
:1001E00061F190E0880F991FFC01EE58FF4FC59117
:1001F000D491FC01E458FF4FA591B491611109C05D
:100200009FB7F8948881209582238883EC912E23D0
:100210000BC0623061F49FB7F8948881322F30951B
:1002200083238883EC912E2B2C939FBF06C08FB71E
:10023000F894E8812E2B28838FBFDF91CF9108950A
:100240001F93CF93DF93182FEB0161E00E94E4002E
:10025000209711F460E004C0CF3FD10539F461E08C
:10026000812FDF91CF911F910C94B500E12FF0E029
:10027000E255FF4FE491E330F9F048F4E130B9F092
:10028000E230A1F584B5806284BDC8BD34C0E730DA
:10029000E9F0E83019F1E43049F58091800080629E
:1002A00080938000D0938B00C0938A0024C084B5D3
:1002B000806884BDC7BD1FC0809180008068809326
:1002C0008000D0938900C093880015C08091B00051
:1002D00080688093B000C093B3000DC08091B000DF
:1002E00080628093B000C093B40005C0C038D105CF
:1002F0000CF0B5CFAFCFDF91CF911F9108958F92C2
:100300009F92AF92BF92CF92DF92EF92FF921F9394
:10031000CF93DF93182FCB01BA01C22FD0E030E08A
:1003200040E050E00E94780769017A01209769F166
:100330008FB7F8948090C0019090C101A090C20145
:10034000B090C3018FBFBE01812F0E9420012FB743
:10035000F8948091C0019091C101A091C201B09127
:10036000C3012FBF88199909AA09BB09C816D90664
:10037000EA06FB0620F08091C401882341F38091B6
:10038000C401811102C02197D1CFDF91CF911F917C
:10039000FF90EF90DF90CF90BF90AF909F908F90A5
:1003A00008954F925F926F927F928F929F92AF9239
:1003B000BF92FF920F931F93CF93DF93F82ECB0141
:1003C000BA01022F10E030E040E050E00E947807D0
:1003D00049015A01C0E0D0E08FB7F8944090C001C5
:1003E0005090C1016090C2017090C3018FBFBE01E7
:1003F0008F2D0E9420012FB7F8948091C001909119
:10040000C101A091C201B091C3012FBF8419950908
:10041000A609B70988169906AA06BB0620F080919E
:10042000C401882341F38091C401811104C0219645
:100430000C171D078CF6DF91CF911F910F91FF9044
:10044000BF90AF909F908F907F906F905F904F90F4
:1004500008953FB7F8948091BC019091BD01A0919F
:10046000BE01B091BF0126B5A89B05C02F3F19F072
:100470000196A11DB11D3FBFBA2FA92F982F882724
:10048000820F911DA11DB11DBC01CD0142E0660F7F
:10049000771F881F991F4A95D1F708958F929F92D1
:1004A000AF92BF92CF92DF92EF92FF926B017C01ED
:1004B0000E9429024B015C01C114D104E104F10442
:1004C000F1F00E942902DC01CB0188199909AA09DF
:1004D000BB09883E9340A105B10570F321E0C21A23
:1004E000D108E108F10888EE880E83E0981EA11C6F
:1004F000B11CC114D104E104F10419F7DDCFFF9060
:10050000EF90DF90CF90BF90AF909F908F90089525
:100510000895CF92DF92EF92FF920F931F93CF93A4
:10052000DF936C017A018B01C0E0D0E0CE15DF05CE
:1005300081F0D8016D918D01D601ED91FC91019072
:10054000F081E02DC6010995892B11F02196EECF9F
:100550007E01C701DF91CF911F910F91FF90EF9026
:10056000DF90CF900895089580E090E00895FC0119
:10057000538D448D252F30E0842F90E0821B930B08
:10058000541710F0CF96089501970895FC01918DAE
:10059000828D981761F0828DDF01A80FB11D5D96E5
:1005A0008C91928D9F5F9F73928F90E008958FEF53
:1005B0009FEF0895FC01918D828D981731F0828D07
:1005C000E80FF11D858D90E008958FEF9FEF08955E
:1005D000FC01918D228D892F90E0805C9F4F821BC2
:1005E00091098F73992708958EE191E00E94E802A6
:1005F00021E0892B09F420E0822F0895FC01848DED
:10060000DF01A80FB11DA35ABF4F2C91848D90E03C
:1006100001968F739927848FA689B7892C93A08917
:10062000B1898C91837080648C93938D848D9813A1
:1006300006C00288F389E02D80818F7D8083089534
:10064000EF92FF920F931F93CF93DF93EC0181E022
:10065000888F9B8D8C8D981305C0E889F9898081DE
:1006600085FD26C0F62E0B8D10E00F5F1F4F0F7318
:100670001127E02E8C8DE8120CC00FB607FCFACFC4
:10068000E889F989808185FFF5CFCE010E94FE02BD
:10069000F1CF8B8DFE01E80FF11DE35AFF4FF08281
:1006A0009FB7F8940B8FEA89FB89808180620AC02A
:1006B0009FB7F894EE89FF896083E889F989808182
:1006C0008370806480839FBF81E090E0DF91CF9151
:1006D0001F910F91FF90EF900895CF93DF93EC015E
:1006E000888D8823C9F0EA89FB89808185FD05C052
:1006F000A889B9898C9186FD0FC00FB607FCF5CF8C
:10070000808185FFF2CFA889B9898C9185FFEDCFD3
:10071000CE010E94FE02E7CFDF91CF91089580E0E5
:1007200090E0892B29F00E94F40281110C940000C2
:100730000895CF92DF92EF92FF920F931F93CF9382
:10074000DF9360E070E089E00E94200160E070E0EB
:100750008AE00E94200181E08093C401C0EBD0E0D8
:100760000CE910E098E8E92E90E0F92EFE01849162
:10077000F801C490F701D490DD20C1F381110E94EB
:100780008C00ED2DF0E0EE0FFF1FE859FF4FA59113
:10079000B4918C918C2151F3809104018F5F8093EF
:1007A000040180910401833018F081E080930401FA
:1007B0001092C401DF91CF911F910F91FF90EF90A4
:1007C000DF90CF9008950E94E1071F920F920FB61D
:1007D0000F9211242F933F938F939F93AF93BF93C7
:1007E0008091C0019091C101A091C201B091C3015B
:1007F0003091BB0123E0230F2D3720F40196A11D7A
:10080000B11D05C026E8230F0296A11DB11D20933E
:10081000BB018093C0019093C101A093C201B0932A
:10082000C3018091BC019091BD01A091BE01B09126
:10083000BF010196A11DB11D8093BC019093BD0124
:10084000A093BE01B093BF01BF91AF919F918F91D3
:100850003F912F910F900FBE0F901F9018951F92F0
:100860000F920FB60F9211242F933F934F935F93E4
:100870006F937F938F939F93AF93BF93EF93FF9368
:10088000E0910201F09103010995FF91EF91BF9171
:10089000AF919F918F917F916F915F914F913F9118
:1008A0002F910F900FBE0F901F9018951F920F92CF
:1008B0000FB60F9211242F933F934F935F936F9333
:1008C0007F938F939F93AF93BF93EF93FF93E091A9
:1008D0000001F09101010995FF91EF91BF91AF9156
:1008E0009F918F917F916F915F914F913F912F9148
:1008F0000F900FBE0F901F9018951F920F920FB67A
:100900000F9211242F933F934F935F936F937F9395
:100910008F939F93AF93BF93EF93FF938EE191E0FB
:100920000E94FE02FF91EF91BF91AF919F918F9135
:100930007F916F915F914F913F912F910F900FBEDB
:100940000F901F9018951F920F920FB60F921124BF
:100950002F938F939F93EF93FF93E0912E01F0914C
:100960002F018081E0913401F091350182FD12C0A8
:100970009081809137018F5F8F73209138018217AA
:1009800051F0E0913701F0E0E25EFE4F958F8093E9
:10099000370101C08081FF91EF919F918F912F913D
:1009A0000F900FBE0F901F901895CF93DF93CDB788
:1009B000DEB7A1970FB6F894DEBF0FBECDBF789417
:1009C00084B5826084BD84B5816084BD85B5826054
:1009D00085BD85B5816085BD80916E008160809305
:1009E0006E0010928100809181008260809381006E
:1009F000809181008160809381008091800081607E
:100A0000809380008091B10084608093B1008091D8
:100A1000B00081608093B00080917A008460809300
:100A20007A0080917A00826080937A0080917A00C7
:100A3000816080937A0080917A00806880937A0048
:100A40001092C100E0912E01F0912F0182E080838D
:100A5000E0912A01F0912B011082E0912C01F0919C
:100A60002D0180E1808310923601E0913201F091F6
:100A7000330186E08083E0913001F0913101808183
:100A800080618083E0913001F09131018081886044
:100A90008083E0913001F091310180818068808312
:100AA000E0913001F091310180818F7D808361E0A0
:100AB00089E00E94E40060E070E089E00E9420018B
:100AC00061E08AE00E94E40060E070E08AE00E9459
:100AD000200161E08BE00E94E40060E070E08BE0C8
:100AE0000E94200161E08DE00E94E40062E082E06B
:100AF0000E94E40060E08EE00E94E40089E993E057
:100B00009093010180930001809169008C7F826045
:100B100080936900E89A20E4322E30E2832E33E09D
:100B2000932EA12CB12C30927C0080917A008064AD
:100B300080937A0080917A0086FDFCCF80917800C6
:100B40002091790090E0922B97FF02C081509C4F3A
:100B5000792E75947594719422E3721610F492E3D1
:100B6000792E272D30E040E050E019A28E010F5D74
:100B70001F4F69017A01CA01B9012AE030E040E063
:100B800050E00E94AA07605DF80162938F01211571
:100B900031054105510579F7309761F0019000204A
:100BA000E9F73197AF01401B510BB8018EE191E09D
:100BB0000E94890242E050E06BE171E08EE191E039
:100BC0000E94890280910401813009F458C082306A
:100BD00009F0BCC0F5E0CF1AD108E108F1080E9485
:100BE0002107A70196010E9478072B013C0125E00F
:100BF000420E511C611C711C242D44E650E060E043
:100C000070E089E00E94D1010E942107A5019401B2
:100C10000E94780768537F4F8F4F9F4F0E944E026C
:100C2000242D44E650E060E070E089E00E947F01FE
:100C30000E942107A70196010E9478076B017C01A1
:100C4000E5E0CE0ED11CE11CF11C2C2D44E650E059
:100C500060E070E08AE00E94D1010E942107A501B6
:100C600094010E94780768537F4F8F4F9F4F0E94D7
:100C70004E022C2D44E650E060E070E064C0F2E3E8
:100C80007F1691F00E942107A70196012253310996
:100C9000410951090E9478072B013C0122E3420ED1
:100CA000511C611C711C05C082E3482E512C612C23
:100CB000712C242D44EF51E060E070E089E00E9447
:100CC000D1010E94210724E931E140E050E00E9477
:100CD00078076C507E4F8F4F9F4F0E944E02242DFD
:100CE00044EF51E060E070E089E00E947F010E94E3
:100CF0002107A701960125503109410951090E9498
:100D000078076B017C01E5E0CE0ED11CE11CF11CE3
:100D10002C2D44EF51E060E070E08AE00E94D101A8
:100D20000E94210724E931E140E050E00E94780769
:100D30006C507E4F8F4F9F4F0E944E022C2D44EFE0
:100D400051E060E070E08AE00E947F010E948F0322
:100D5000EACEEEE1F1E01382128288EE93E0A0E0A9
:100D6000B0E084839583A683B7838DE091E091837F
:100D7000808385EC90E09587848784EC90E097876A
:100D8000868780EC90E0918B808B81EC90E0938B58
:100D9000828B82EC90E0958B848B86EC90E0978B35
:100DA000868B118E128E138E148E08958F929F92C1
:100DB000AF92BF92CF92DF92EF92FF92CF93DF93E9
:100DC000EC01688179818A819B81611571058105BA
:100DD000910521F464E279ED8BE597E02DE133EFA5
:100DE00041E050E00E94780749015A019B01AC01A3
:100DF000A7EAB1E40E9497076B017C01ACEEB4EF67
:100E0000A50194010E94A507DC01CB018C0D9D1D5D
:100E1000AE1DBF1DB7FF03C00197A109B04888836D
:100E20009983AA83BB83BC01CD019F77DF91CF91CA
:100E3000FF90EF90DF90CF90BF90AF909F908F90FA
:100E400008958F929F92AF92BF92CF92DF92EF92CE
:100E5000FF926091050170910601809107019091C8
:100E60000801611571058105910521F464E279EDB0
:100E70008BE597E02DE133EF41E050E00E947807E9
:100E800049015A019B01AC01A7EAB1E40E9497070E
:100E90006B017C01ACEEB4EFA50194010E94A507A3
:100EA000DC01CB018C0D9D1DAE1DBF1DB7FF03C026
:100EB0000197A109B0488093050190930601A09382
:100EC0000701B0930801BC01CD019F77FF90EF901F
:100ED000DF90CF90BF90AF909F908F9008956093D8
:100EE000050170930601809307019093080108950E
:100EF000052E97FB1EF400940E948F0757FD07D024
:100F00000E94AA0707FC03D04EF40C948F0750955B
:100F10004095309521953F4F4F4F5F4F08959095E5
:100F20008095709561957F4F8F4F9F4F08950E94D8
:100F3000CC07A59F900DB49F900DA49F800D911D8F
:100F400011240895B7FF0C9497070E949707821BFE
:100F5000930B0895A1E21A2EAA1BBB1BFD010DC025
:100F6000AA1FBB1FEE1FFF1FA217B307E407F50759
:100F700020F0A21BB30BE40BF50B661F771F881F35
:100F8000991F1A9469F760957095809590959B01CB
:100F9000AC01BD01CF010895A29FB001B39FC00174
:100FA000A39F700D811D1124911DB29F700D811D95
:100FB0001124911D0895EE0FFF1F0590F491E02D6F
:100FC000099481E090E0F8940C94E607F894FFCF40
:100FD000880288020101000000000000002003894F
:0E0FE00002B7026D03E802C602DA020D0A0033
:00000001FF
